:100000000C94A3000C9450020C94C0000C94C000FB
:100010000C94C0000C94C0000C94C0000C94C00060
:100020000C94C0000C94C0000C94C0000C94A90364
:100030000C94C0000C94C0000C94C0000C94C00040
:100040000C9429090C94C0000C94C0000C94C000BE
:100050000C94C0000C94C0000C94C0000C94C00020
:100060000C94C0000C94C0000C94C0000C94C00010
:1000700039013B013D014201440146014B014E0162
:100080005201560198019801980198019801980130
:1000900098015B0160016201640198019801980177
:1000A0009801980198019801980198019801980188
:1000B0009801980198019801980198019801980178
:1000C0009801980198019801980198019801980168
:1000D00098015B01600162016401DD0748080C05BD
:1000E0004808DD073904F107480848084808480867
:1000F0002E0850040A04FC04480848080306B80403
:10010000D00648081204090848084808220448088C
:10011000480848084808480848084808480848085F
:10012000480848084808480848084808480848084F
:100130004808500448084808480848081B05B804FF
:10014000760548081A0411241FBECFEFD4E0DEBFA5
:10015000CDBF11E0A0E0B1E0EEEDF2E102C005900C
:100160000D92A031B107D9F711E0A0E1B1E001C0D3
:100170001D92A533B107E1F70E9455080C946D0953
:100180000C940000289908C093980000000000001B
:1001900086B3939A8F77089580E008958599FECF6E
:1001A0009FEF97BB88BB949A00009498000017BA01
:1001B00098BB08951F93182F82958F708A3010F482
:1001C000805D01C0895C0E94CE00212F30E02F703D
:1001D0003070812F8F702A30310514F4805D01C09A
:1001E000895C0E94CE001F910895EF92FF92CF93F9
:1001F000DF93E82EE7017E01F92EE70102C00E949D
:10020000CE0089918823D9F7DF91CF91FF90EF90AD
:100210000895A79A329A3A980000000000003A9A8E
:10022000000000000000929AAE9880912201909107
:1002300023019070909323018093220181E08093A9
:10024000001187EC80931F111092041180910A0114
:100250008823F1F190E0C0978533910508F068C0DC
:10026000885C9F4FFC01EE0FFF1F0590F491E02D7D
:10027000099487E603C083E501C087E480930611F3
:100280008FE22CC083E4FACF83E001C081E0809349
:1002900006118CE123C010920611FBCF10920611BB
:1002A00086E11CC01092061184E118C083EC809393
:1002B00006118EE413C085E8809306118BE20EC010
:1002C00084E103C08BE8DACF8FE78093061106C084
:1002D0008091080180930611809109018093071194
:1002E0008AE1809308118091000180931011809120
:1002F000010180931111809102018093121180916C
:100300000301809313118091040180931411809153
:10031000050180931511809106018093161180913B
:100320000701809317118FEE809304118DE00895DB
:1003300087E008958F77E82FF0E0E050FE4D808150
:1003400008958F77E82FF0E0E050FF4E6083089526
:10035000882311F4AD9A01C0AE9A81EB83BD89B7B1
:10036000846089BF87E087BD0895DF92EF92FF9296
:100370000F931F938091021182FF8BC0809119010E
:100380008F709091180191118064909113019111D7
:100390008068809310112091130180911401909135
:1003A0001501A0911601B0911701D0901401E090B1
:1003B0001A01F0901B0100911C0110911D01F09198
:1003C0001E01E0911F017091200160912101222303
:1003D00001F523E0B695A795979587952A95D1F7CE
:1003E00080931111D294DD0C80EED822D09212119C
:1003F000E0921311F092141100931511109316113D
:10040000F0931711E09318117093191160931A115A
:1004100038C09C01AD01012E15E1569547953795E1
:1004200027951A95D1F7102D209311119C01AD013C
:10043000012E1DE056954795379527951A95D1F7CA
:10044000102D2093121125E0B695A79597958795C5
:100450002A95D1F780931311DD0CDD0CDD0CD092C1
:100460001411E0921511F0921611009317111093C8
:100470001811F0931911E0931A1170931B116093E6
:100480001C1181E08093011180E00E94A8018DE0A1
:1004900001C087E01F910F91FF90EF90DF900895CA
:1004A0001F920F920FB60F921124BF92CF92DF923C
:1004B000EF92FF920F931F932F933F934F935F936E
:1004C0006F937F938F939F93AF93BF93EF93FF931C
:1004D000B09003111B2DB1FE09C0809122019091B3
:1004E0002301877F909323018093220110FFBFC0D7
:1004F0008091101187FF04C081E08093250102C024
:10050000109225018091101186FF04C081E0809334
:100510002A0102C010922A01809110118F708093DD
:100520002B01893018F088E080932B0190912501F0
:10053000409111118091121120911311C09014114A
:10054000F090151100911611F0911711E09118110A
:10055000E0901911D0901A11992369F550E060E0EC
:1005600070E0B3E0440F551F661F771FBA95D1F7AF
:1005700082958695877090E0A0E0B0E0842B952B63
:10058000A62BB72B8093260190932701A0932801D7
:10059000B093290120932C01C0922D01F0922E01DD
:1005A00000932F01F0933001E0933101E09232018A
:1005B000D09233014DC050E060E070E0A5E1440FFF
:1005C000551F661F771FAA95D1F790E0A0E0B0E015
:1005D0003DE0880F991FAA1FBB1F3A95D1F7842BC6
:1005E000952BA62BB72B30E040E050E065E0220FC2
:1005F000331F441F551F6A95D1F7822B932BA42BD1
:10060000B52BC694C694C6942C2D30E040E050E043
:10061000822B932BA42BB52B80932601909327013B
:10062000A0932801B0932901F0922C0100932D0191
:10063000F0932E01E0932F01E0923001D09231012E
:1006400080911B118093320180911C1180933301A2
:1006500084E08093011180912201909123018260B6
:10066000909323018093220180E00E94A80113FF50
:100670000CC081E00E94A801809122019091230189
:100680009860909323018093220112FF0CC081E0B7
:100690000E94A8018091220190912301946090937F
:1006A000230180932201B7FE1CC080910C1180931E
:1006B000240182E08093011181E00E94A8018091D1
:1006C000220190912301906890932301809322014D
:1006D0008091220190912301877F90932301809341
:1006E000220115FF0CC081E00E94A8018091220127
:1006F000909123019062909323018093220116FF31
:1007000010C080910B118093120181E00E94A8011A
:100710008091220190912301906490932301809312
:100720002201FF91EF91BF91AF919F918F917F91A6
:100730006F915F914F913F912F911F910F91FF907A
:10074000EF90DF90CF90BF900F900FBE0F901F9053
:1007500018951F920F920FB60F9211248F939F93AB
:1007600017BC89B78B7F89BFAD988091220190918A
:10077000230197FFAE989F918F910F900FBE0F901E
:100780001F901895FC018081813610F0875203C0BC
:10079000813408F087508F700895AF92BF92CF9246
:1007A000DF92EF92FF920F931F93DF93CF930F92FD
:1007B000CDB7DEB77C01DC010D900020E9F76D01BB
:1007C0000894C108D108C81AD90A5C010894A11C70
:1007D000B11C850106C090E00E944A09009709F407
:1007E00057C4F80181918F018823A9F72C2DD701D7
:1007F0003C91832F90E0815490408633910508F01E
:1008000047C483599F4FFC01EE0FFF1F0590F491E1
:10081000E02D09948EE40E94CE008BE091E00E94CE
:10082000F50034C486E50E94CE0080E10E94DA0023
:1008300080E1ECC386E70E94CE0081E00E94DA00EE
:1008400089E0E4C385E090E00E945509882319F00F
:100850001092340107C085EA80933401109211018F
:100860001092100185E090E0609134010E945D09D2
:100870000DC4809122019091230182FF09C486E476
:100880000E94CE008091220190912301892F0E9425
:10089000DA00AE9880912201909123019070F2C30A
:1008A000293009F0F5C3809122019091230182FD46
:1008B000EFC33D3619F404E011E002C000E011E09E
:1008C000C5010E94C203C82EC294E0EFCE22D80117
:1008D000CC9275010894E11CF11CC7010E94C2036F
:1008E0008C29F80181935F010894E11CF11CC70178
:1008F0000E94C203C82EC29470EFC722D80111967D
:10090000CC920894E11CF11CC7010E94C2038C29FF
:10091000F801818385010F5F1F4F0894E11CF11CD2
:10092000C7010E94C203C82EC29460EFC622D5013F
:100930001196CC920894E11CF11CC7010E94C203DD
:100940008C29F50181830894E11CF11CC7010E94E8
:10095000C203C82EC29450EFC522D8011196CC9282
:10096000C70101960E94C2038C29F801818341C00E
:10097000253019F0223009F08BC38091220190912B
:10098000230182FD85C3333731F5C5010E94C203BF
:10099000082F0295007F009308010894A11CB11C48
:1009A000C5010E94C203802B809308010894A11CFA
:1009B000B11CC5010E94C203082F0295007F00935D
:1009C0000901C50101960E94C203802B8093090191
:1009D00010920A0105C0D70111968C9180930A01EB
:1009E0008091220190912301816090932301809353
:1009F00022010E9409014DC380912201909123019F
:100A000080FF46C3809122019091230182FD40C363
:100A1000809100118E7F2FC380912201909123013C
:100A200082FF36C381E08093001180912201909172
:100A300023018B7F27C3809122019091230182FFA4
:100A400027C3809122019091230183FD21C325308A
:100A500009F01EC381E08093180143E1C42E41E0F8
:100A6000D42E10921301C5010E94C203E82EFF2468
:100A700000E010E034E0EE0CFF1C001F111F3A955F
:100A8000D1F7F601E182F282038314830894A11C5A
:100A9000B11CC5010E94C203E80EF11C011D111D0D
:100AA00024E0EE0CFF1C001F111F2A95D1F7D60180
:100AB0001196ED92FD920D931C9314970894A11C2E
:100AC000B11CC5010E94C203E80EF11C011D111DDD
:100AD000F601E182F28203831483C50101960E942C
:100AE000C203D60116968C93169764C28091220198
:100AF0009091230182FFCCC2809122019091230129
:100B000083FDC6C28C2D8550813108F0C1C2109280
:100B1000180110921301C501C9820E94C203E82E78
:100B2000FF2400E010E094E0EE0CFF1C001F111FFA
:100B30009A95D1F7E0921401F092150100931601F5
:100B4000109317010894A11CB11CC5010E94C20397
:100B5000E80EF11C011D111D84E0EE0CFF1C001FAE
:100B6000111F8A95D1F7E0921401F09215010093BC
:100B70001601109317010894A11CB11CC5010E9415
:100B8000C203E80EF11C011D111DE0921401F09248
:100B9000150100931601109317010894A11CB11CB4
:100BA000C5010E94C20380931901482F50E029819A
:100BB00030E025503040359527954217530709F00E
:100BC00067C2893008F064C20AE111E07801E40EDE
:100BD000F51E15C0C50101960E94C203C82EC2941D
:100BE000A0EFCA22F801C08282E090E0A80EB91EF0
:100BF000C5010E94C2038C0DD8018D938D010E1585
:100C00001F0541F7D7C1809122019091230182FFF6
:100C10003FC2809122019091230183FD39C22A3085
:100C200009F036C281E080931801F3E1CF2EF1E0A4
:100C3000DF2E80931301C5010E94C203E82EFF241A
:100C400000E010E0E4E0EE0CFF1C001F111FEA952D
:100C5000D1F7F601E182F282038314830894A11C88
:100C6000B11CC5010E94C203E80EF11C011D111D3B
:100C700074E0EE0CFF1C001F111F7A95D1F7D6010E
:100C80001196ED92FD920D931C9314970894A11C5C
:100C9000B11CC5010E94C203E80EF11C011D111D0B
:100CA00064E0EE0CFF1C001F111F6A95D1F7F601DE
:100CB000E182F282038314830894A11CB11CC50154
:100CC0000E94C203E80EF11C011D111D54E0EE0C40
:100CD000FF1C001F111F5A95D1F7D6011196ED92F6
:100CE000FD920D931C9314970894A11CB11CC5018F
:100CF0000E94C203E80EF11C011D111D44E0EE0C20
:100D0000FF1C001F111F4A95D1F7F601E182F28204
:100D1000038314830894A11CB11CC5010E94C20363
:100D2000E80EF11C011D111D34E0EE0CFF1C001F2C
:100D3000111F3A95D1F7D6011196ED92FD920D93C0
:100D40001C9314970894A11CB11CC5010E94C203F6
:100D5000E80EF11C011D111D24E0EE0CFF1C001F0C
:100D6000111F2A95D1F7F601E182F28203831483E1
:100D70000894A11CB11CC5010E94C203E80EF11C1D
:100D8000011D111DD6011196ED92FD920D931C933C
:100D90001497C50101960E94C203F60186830AC119
:100DA000809122019091230182FF72C180912201E2
:100DB0009091230183FD6CC18C2D8A50813108F004
:100DC00067C11092180181E080931301C501C982A7
:100DD0000E94C203E82EFF2400E010E094E0EE0C35
:100DE000FF1C001F111F9A95D1F7E0921401F09299
:100DF000150100931601109317010894A11CB11C52
:100E0000C5010E94C203E80EF11C011D111D84E002
:100E1000EE0CFF1C001F111F8A95D1F7E092140100
:100E2000F092150100931601109317010894A11C6C
:100E3000B11CC5010E94C203E80EF11C011D111D69
:100E4000B4E0EE0CFF1C001F111FBA95D1F7E09221
:100E50001401F092150100931601109317010894E4
:100E6000A11CB11CC5010E94C203E80EF11C011DAA
:100E7000111DA4E0EE0CFF1C001F111FAA95D1F755
:100E8000E0921401F09215010093160110931701DE
:100E90000894A11CB11CC5010E94C203E80EF11CFC
:100EA000011D111DF4E0EE0CFF1C001F111FFA952F
:100EB000D1F7E0921401F0921501009316011093FE
:100EC00017010894A11CB11CC5010E94C203E80EC1
:100ED000F11C011D111DE4E0EE0CFF1C001F111F91
:100EE000EA95D1F7E0921401F092150100931601F2
:100EF000109317010894A11CB11CC5010E94C203E4
:100F0000E80EF11C011D111D74E0EE0CFF1C001F0A
:100F1000111F7A95D1F7E0921401F0921501009318
:100F20001601109317010894A11CB11CC5010E9461
:100F3000C203E80EF11C011D111DE0921401F09294
:100F4000150100931601109317010894A11CB11C00
:100F5000C5010E94C20380931901482F50E02981E6
:100F600030E02A503040359527954217530709F055
:100F70008FC0893008F08CC00AE111E07801E40EDE
:100F8000F51E15C0C50101960E94C203C82EC29469
:100F900020EFC222D801CC92E2E0F0E0AE0EBF1EFC
:100FA000C5010E94C2038C0DD8018D938D010E15D1
:100FB0001F0541F70E94B5016CC0809122019091FC
:100FC000230182FF65C0353431F485E40E94CE00F0
:100FD000809124011BC081E40E94CE008091120107
:100FE00015C0233009F054C0C5010E94C203082F68
:100FF0000295007FC50101960E94C203E82E87E496
:101000000E94CE00802F8E290E949A010E94DA0051
:101010003DC02530E9F5C5010E94C203E82EE294E7
:1010200090EFE9220894A11CB11CC5010E94C203E3
:10103000082F0894A11CB11CC5010E94C203C82E30
:10104000C29480EFC822C50101960E94C2036C2D94
:10105000682B8E2D802B0E94A10118C08091220147
:101060009091230180FF14C080912201909123016F
:1010700082FD0EC082E08093001180912201909148
:101080002301846090932301809322018DE001C0AD
:1010900087E00F90CF91DF911F910F91FF90EF901C
:1010A000DF90CF90BF90AF900895CF92DF92EF92F4
:1010B000FF920F931F93DF93CF93CDB7DEB76E9759
:1010C0000FB6F894DEBF0FBECDBF81B3886181BB80
:1010D00084B3806684BB80B7806480BF80B7886338
:1010E00080BF85B7806885BF8BB780648BBF0E9447
:1010F00009018AEF81BF8BE083BF81E089BF109235
:1011000011011092100185E090E00E945509809332
:1011100034017894DD248E010F5F1F4FAFE1EA2E7A
:10112000F12CEC0EFD1E809122019091230181FF94
:1011300073C080912501882339F580912A01882385
:1011400011F484E701C082E70E94CE00809126015D
:1011500090912701A0912801B0912901892F9A2F00
:10116000AB2FBB279C01AD012F70307040705070C9
:101170008F702A3031054105510510F4805D01C0A2
:10118000895C0E94CE0015C080912A01882311F449
:1011900084E501C082E50E94CE00809129010E9471
:1011A000DA00809128010E94DA00809127010E94D4
:1011B000DA00809126010E94DA0080912B01805D87
:1011C0000E94CE0080912A01882371F4CC2408C0AB
:1011D000EC2DF0E0EB5DFE4F87810E94DA00C394B6
:1011E00080912B01C816A0F380913401882341F02F
:1011F000809111010E94DA00809110010E94DA00B2
:101200008DE00E94CE0080912201909123018D7F7C
:1012100090932301809322010E94C2008D3061F4DB
:10122000C8010E94CD030E94CE00F8011192EE1574
:10123000FF05E1F7DD2477CF882309F474CFF801A7
:10124000ED0DF11D80838D2D8D3108F06CCFD39481
:101250006ACF1F920F920FB60F9211242F938F9384
:101260009F9380911001909111010196909311012B
:10127000809310012AEE8036920720F0109211011F
:10128000109210019F918F912F910F900FBE0F9090
:101290001F90189591111EC080538A5028F0865CCB
:1012A000806281568650B8F70895E199FECF9FBBC2
:1012B0008EBBE09A99278DB30895262FE199FECF32
:1012C0009FBB8EBB2DBB0FB6F894E29AE19A0FBE7E
:0E12D00001960895992788270895F894FFCF76
:1012DE0000000000FFFFFFFF432F003030303100D1
:00000001FF
